:020000040000fa
:080000000040040000000000b4
:020000040000fa
:0400080000420000b2
:020000040000fa
:04000c00424200006c
:020000040000fa
:04001000a242000008
:020000040000fa
:040014002042000086
:020000040000fa
:040018006242000040
:020000040000fa
:04001c00824200001c
:020000040000fa
:04002000c2420000d8
:020000040000fa
:04002400ec450000a7
:020000040000fa
:04002800ec450000a3
:020000040000fa
:04002c00ec4500009f
:020000040000fa
:04003000ec4500009b
:020000040000fa
:04003400b6440000ce
:020000040000fa
:0400380088410000fb
:020000040000fa
:04003c00ec4500008f
:020000040000fa
:04004000ec4500008b
:020000040000fa
:04004400ec45000087
:020000040000fa
:04004800ec45000083
:020000040000fa
:04004c00ec4500007f
:020000040000fa
:04005000ec4500007b
:020000040000fa
:040054005043000015
:020000040000fa
:04005800ee42000074
:020000040000fa
:04005c004641000019
:020000040000fa
:04006000a6410000b5
:020000040000fa
:04006400ec45000067
:020000040000fa
:04006800ec45000063
:020000040000fa
:04006c00ec4500005f
:020000040000fa
:04007000ec4500005b
:020000040000fa
:04007400ec45000057
:020000040000fa
:04007800ec45000053
:020000040000fa
:04007c00ec4500004f
:020000040000fa
:04008000ec4500004b
:020000040000fa
:04008400ec45000047
:020000040000fa
:04008800c44100006f
:020000040000fa
:04008c00ec4500003f
:020000040000fa
:04009000ec4500003b
:020000040000fa
:04009400ec45000037
:020000040000fa
:04009800ec45000033
:020000040000fa
:04009c00ec4500002f
:020000040000fa
:0400a00034440000e4
:020000040000fa
:0400a400d243000043
:020000040000fa
:0400a800ec45000023
:020000040000fa
:0400ac00ec4500001f
:020000040000fa
:0400b00064450000a3
:020000040000fa
:0400b400ec44000018
:020000040000fa
:0400b800e241000021
:020000040000fa
:0400bc00ec4500000f
:020000040000fa
:0400c000ec4500000b
:020000040000fa
:0400c400ec45000007
:020000040000fa
:0400c800ec45000003
:020000040000fa
:0400cc00ec450000ff
:020000040000fa
:0400d000ec450000fb
:020000040000fa
:0400d400ec450000f7
:020000040000fa
:0400d800ec450000f3
:020000040000fa
:0400dc00ec450000ef
:020000040000fa
:0400e000ec450000eb
:020000040000fa
:0400e400ec450000e7
:020000040000fa
:0400e800ec450000e3
:020000040000fa
:0400ec00ec450000df
:020000040000fa
:0400f000ec450000db
:020000040000fa
:0400f400ec450000d7
:020000040000fa
:0400f800ec450000d3
:020000040000fa
:0400fc00ec450000cf
:020000040000fa
:04010000ec450000ca
:020000040000fa
:04010400e4450000ce
:020000040000fa
:040108006c45000042
:020000040000fa
:04010c00ec450000be
:020000040000fa
:04011000ec450000ba
:020000040000fa
:04011400ec450000b6
:020000040000fa
:04011800ec450000b2
:020000040000fa
:04011c00ec450000ae
:020000040000fa
:04012000ec450000aa
:020000040000fa
:04012400ec450000a6
:020000040000fa
:04012800ec450000a2
:020000040000fa
:04012c00bc430000d0
:020000040000fa
:04013000a0440000e7
:020000040000fa
:04013400ec45000096
:020000040000fa
:04013800ec45000092
:020000040000fa
:04013c00ec4500008e
:020000040000fa
:04014000ec4500008a
:020000040000fa
:04014400ec45000086
:020000040000fa
:04014800ec45000082
:020000040000fa
:04014c00ec4500007e
:020000040000fa
:04015000ec4500007a
:020000040000fa
:04015400ec45000076
:020000040000fa
:04015800ec45000072
:020000040000fa
:04015c00ec4500006e
:020000040000fa
:04016000ec4500006a
:020000040000fa
:04016400ec45000066
:020000040000fa
:04016800ec45000062
:020000040000fa
:04016c00ec4500005e
:020000040000fa
:04017000ec4500005a
:020000040000fa
:04017400ec45000056
:020000040000fa
:04017800ec45000052
:020000040000fa
:04017c00ec4500004e
:020000040000fa
:04018000ec4500004a
:020000040000fa
:04018400ec45000046
:020000040000fa
:04018800ec45000042
:020000040000fa
:04018c00ec4500003e
:020000040000fa
:04019000ec4500003a
:020000040000fa
:04019400ec45000036
:020000040000fa
:04019800ec45000032
:020000040000fa
:04019c00ec4500002e
:020000040000fa
:0401a000ec4500002a
:020000040000fa
:0401a400ec45000026
:020000040000fa
:0401a800ec45000022
:020000040000fa
:0401ac00ec4500001e
:020000040000fa
:0401b000ec4500001a
:020000040000fa
:0401b400ec45000016
:020000040000fa
:0401b800ec45000012
:020000040000fa
:0401bc00ec4500000e
:020000040000fa
:0401c000ec4500000a
:020000040000fa
:0401c400ec45000006
:020000040000fa
:0401c800ec45000002
:020000040000fa
:0401cc00ec450000fe
:020000040000fa
:0401d000ec450000fa
:020000040000fa
:0401d400ec450000f6
:020000040000fa
:0401d800ec450000f2
:020000040000fa
:0401dc00ec450000ee
:020000040000fa
:0401e000ec450000ea
:020000040000fa
:0401e400ec450000e6
:020000040000fa
:0401e800ec450000e2
:020000040000fa
:0401ec00ec450000de
:020000040000fa
:0401f000ec450000da
:020000040000fa
:0401f400ec450000d6
:020000040000fa
:0401f800ec450000d2
:020000040000fa
:0401fc00ec450000ce
:020000040000fa
:04020000ec450000c9
:020000040000fa
:04020400ec450000c5
:020000040000fa
:04020800ec450000c1
:020000040000fa
:04020c00ec450000bd
:020000040000fa
:04021000ec450000b9
:020000040000fa
:04021400ec450000b5
:020000040000fa
:04021800ec450000b1
:020000040000fa
:04021c00ec450000ad
:020000040000fa
:04022000ec450000a9
:020000040000fa
:04022400ec450000a5
:020000040000fa
:04022800ec450000a1
:020000040000fa
:04022c00ec4500009d
:020000040000fa
:04023000ec45000099
:020000040000fa
:04023400ec45000095
:020000040000fa
:04023800ec45000091
:020000040000fa
:04023c00ec4500008d
:020000040000fa
:04024000ec45000089
:020000040000fa
:04024400ec45000085
:020000040000fa
:04024800ec45000081
:020000040000fa
:04024c00ec4500007d
:020000040000fa
:04025000ec45000079
:020000040000fa
:04025400ec45000075
:020000040000fa
:04025800ec45000071
:020000040000fa
:04025c00ec4500006d
:020000040000fa
:04026000ec45000069
:020000040000fa
:04026400ec45000065
:020000040000fa
:04026800ec45000061
:020000040000fa
:04026c00ec4500005d
:020000040000fa
:04027000ec45000059
:020000040000fa
:04027400ec45000055
:020000040000fa
:04027800ec45000051
:020000040000fa
:04027c00ec4500004d
:020000040000fa
:04028000ec45000049
:020000040000fa
:100500004a6100006e20000020360000203200000a
:100510003032000033200000323100003a35000054
:10052000383a000035320000203a00002042000036
:100530006967000042720000616900006e200000df
:100540007465000073740000657200002073000081
:100550006f6600007477000061720000652c000077
:100560002074000072690000636b0000000000004e
:10057000000000000000000000000000000000007b
:10058000000000000000000000000000000000006b
:10059000000000000000000000000000000000005b
:1005a000000000000000000000000000000000004b
:1005b000000000000000000000000000000000003b
:1005c000000000000000000000000000000000002b
:1005d000000000000000000000000000000000001b
:1005e000000000000000000000000000000000000b
:1005f00000000000000000000000000000000000fb
:020000040000fa
:0406f800cdab000086
:020000040000fa
:108000002f3121000eff27000e0188000000000024
:10801000000020000000e00002003200000120000b
:108020002002880014000700ed0207000000e000b5
:1080300003003a00a077260001002000020037006c
:108040000000200001002000810f700001003200bc
:108050000f000700000020000000e00002003200d6
:108060000000020000000000245a0200000000008e
:108070000040da000000fe00200020000000e000c8
:10808000020032000020200090018800000006005d
:10809000a1028800800478000000eb001f00370078
:1080a000e284440054a0b4009905ba00e28444007c
:1080b00054a0b4009906ba00e284440054a0b4006d
:1080c0000006eb00476fde00fd07b200ae0188003e
:1080d000636ce10003003a000ad801000000eb00e5
:1080e0000e003700606ce10008003a00004deb0024
:1080f0000a05e800020039003420ec000af0a00074
:108100008b05e900f9ff3e00040037006168e100db
:10811000010032000086eb000b00070019c7ba000f
:108120000e04e0001905ba0003003a000a00e0005e
:10813000dbff3a0000000600fe07b200ae02880036
:108140008a047800f5ff37000cd0a300e20f4d0041
:108150001c00390089027800354dba000a05e80094
:10816000020039003420ec000af0a0008b05e90081
:108170000f003200254dba000a05e8000200390060
:108180003420ec000af0a0008b05e9000800320062
:108190000c00e0000600320015cdba000a05e80028
:1081a000020039003420ec000af0a0008b05e90041
:1081b0008984e80054a0b4000b00e000e2ff3a001c
:1081c000000006009902ba00055d78008b05e90001
:1081d000f7ff3200c82ade00055d78008b05e90054
:1081e000f3ff32000c00e000f1ff320019ddba00ad
:1081f000eeff37008a68040000000000e45d040020
:1082000000000000025e040000000000f4600400b2
:10821000000000001261040000000000e665040098
:1082200000000000904d040000000000a44d040078
:1082300000000000b84d040000000000cc4d040018
:1082400000000000de4d040000000000a8570400fc
:1082500000000000bc57040000000000d0570400dc
:1082600000000000e457040000000000f65704007e
:1082700000000000fa5b0400000000000c5c040039
:10828000000000003a5c0400000000003600f80026
:10829000809fbe00829fbe00849fbe00869fbe005e
:1082a0003200f8003400f80010002000a00188001f
:1082b0000020200090018800000000000000fa006b
:1082c0000140800000002200008060000000e0000b
:1082d00006003200c08380000000e000020032008f
:1082e000c08380000000010001a8a9000080fa00fe
:1082f0003400f9003200f9004f03be004f02be0007
:108300004f01be004f00be003600f90000400600dd
:108310003600f800809fbe00829fbe00849fbe0092
:10832000869fbe000000fa00e61207000088a90040
:108330000080fa004f03be004f02be004f01be0096
:108340004f00be003600f900004006003600f8007d
:10835000809fbe00829fbe00849fbe00869fbe009d
:108360000000fa00da12070001c8a9000080fa0034
:108370004f03be004f02be004f01be004f00be00c3
:108380003600f900004006003600f800809fbe006d
:10839000829fbe00849fbe00869fbe000000fa0040
:1083a000ce1207000308a9000080fa004f03be00a8
:1083b0004f02be004f01be004f00be003600f90064
:1083c000004006003600f800809fbe00829fbe007d
:1083d000849fbe00869fbe000000fa00c212070004
:1083e0000488a9000080fa004f03be004f02be00bf
:1083f0004f01be004f00be003600f90000400600ed
:108400003600f800809fbe00829fbe00849fbe00a1
:10841000869fbe000000fa00c028a9000000eb0003
:10842000451307000080fa004f03be004f02be0054
:108430004f01be004f00be003600f90000400600ac
:108440003600f800809fbe00829fbe00849fbe0061
:10845000869fbe000000fa003c130700c048a90038
:1084600010002000341307000080fa004f03be0004
:108470004f02be004f01be004f00be003600f900a3
:10848000004006003600f800809fbe00829fbe00bc
:10849000849fbe00869fbe000000fa00c068a9004d
:1084a00020002000241307000080fa004f03be00c4
:1084b0004f02be004f01be004f00be003600f90063
:1084c000004006003600f800809fbe00829fbe007c
:1084d000849fbe00869fbe000000fa00c088a900ed
:1084e00030002000141307000080fa004f03be0084
:1084f0004f02be004f01be004f00be003600f90023
:10850000004006003600f800809fbe00829fbe003b
:10851000849fbe00869fbe000000fa00c0a8a9008c
:1085200040002000041307000080fa004f03be0043
:108530004f02be004f01be004f00be003600f900e2
:10854000004006003600f800809fbe00829fbe00fb
:10855000849fbe00869fbe000000fa00c608a900e6
:1085600070002000f41207000080fa004f03be00e4
:108570004f02be004f01be004f00be003600f900a2
:10858000004006003600f800809fbe00829fbe00bb
:10859000849fbe00869fbe000000fa002146800036
:1085a00000022000008060000000e00003003200b4
:1085b000c4a8a90090002000df1207002046800018
:1085c000700060000000e00003003200c488a900d1
:1085d000a0002000d8120700ffff37003600f80087
:1085e000809fbe00829fbe00849fbe00869fbe000b
:1085f0000000fa00708280000000e00002003200fb
:108600007082800000000100518280004082800062
:10861000808f500002003a002188a900190037001d
:108620000188a90010003700508280009040780037
:108630008180fb00211188000000e8005082880042
:1086400051828000900e2100808f500002003a007d
:10865000000e2100508288005182800040828000fc
:10866000808f500006003200111180000020200091
:10867000008060000000e000ebff320001003700e6
:10868000000000000080fa004f03be004f02be0051
:108690004f01be004f00be003600f900004006004a
:1086a0003600f800809fbe00829fbe00849fbe00ff
:1086b000869fbe000000fa00808280000000e0007b
:1086c0000200320080828000000001000168a900e1
:1086d0001e00370020828000311180008140780028
:1086e0000148780021828000100f2100808f500007
:1086f00009003200208280008000e8003082800083
:10870000808f500004003200208280000000e800ca
:10871000208288000d00370021828000100f210088
:10872000808f500007003a0031828000900e2100b7
:10873000808f500003003200900e210020828800bc
:108740000200370010c0b3004cf0b70010118000d9
:10875000610060000000e000deff3a000080fa00e7
:108760004f03be004f02be004f01be004f00be00cf
:108770003600f90000400600801f78000000fa0073
:1087800010118000620060000000e0000100320073
:108790002222a9000828a9000080fa004f007800d2
:1087a000004006003600f800809fbe00829fbe0099
:1087b000849fbe00869fbe000000fa00e082800019
:1087c0000000e00002003200e082800000000100b2
:1087d000c1828000b0828000808f500002003a0089
:1087e00023e8a9001900370003e8a90010003700aa
:1087f000c0828000904078008180fb00a111880039
:108800000000e800c0828800c18280009030210012
:10881000808f500002003a0000302100c0828800a2
:10882000c1828000b0828000808f5000060032003c
:108830009111800000202000008060000000e00016
:10884000ebff320001003700000000000080fa005a
:108850004f03be004f02be004f01be004f00be00de
:108860003600f900004006003600f800809fbe0088
:10887000829fbe00849fbe00869fbe000000fa005b
:10888000f08280000000e00002003200f0828000f0
:108890000000010003c8a9001e003700908280007c
:1088a000b1118000814078000148780091828000f9
:1088b00010312100808f500009003200908280002a
:1088c0008000e800a0828000808f50000400320009
:1088d000908280000000e800908288000d00370040
:1088e0009182800010312100808f500007003a00f3
:1088f000a182800090302100808f50000300320060
:1089000090302100908288000200370010c0b30030
:108910005af0b70090118000610060000000e00094
:10892000deff3a000080fa004f03be004f02be0097
:108930004f01be004f00be003600f90000400600a7
:10894000801f78000000fa00901180006200600033
:108950000000e000010032003222a9000848a9000e
:108960000080fa004f007800004006003600f80052
:10897000809fbe00829fbe00849fbe00869fbe0077
:108980000000fa00e08380000000e00002003200f6
:10899000e083800000000100300f210010407800cb
:1089a0008040e800300f210001487800200f2100ae
:1089b00011c0b300014878000068a9000080fa00e7
:1089c0004f03be004f02be004f01be004f00be006d
:1089d0003600f900004006003600f800809fbe0017
:1089e000829fbe00849fbe00869fbe000000fa00ea
:1089f0005120800000022000008060000000e000a4
:108a00001f00320051208000000022000080600022
:108a10000000e00005003200008380000000e0005c
:108a2000020032000083800000000100512080001d
:108a300000002100008060000000e000050032001e
:108a4000108380000000e0000200320010838000ec
:108a500000000100512080000080200000806000a4
:108a60000000e00005003200208380000000e000ec
:108a70000200320020838000000001000aa4a90047
:108a800050208000620060000000e000060032001c
:108a9000408380000000e00002003200408380003c
:108aa000000001000a24a9000468a9000080fa005f
:108ab0004f03be004f02be004f01be004f00be007c
:108ac0003600f900004006000000fa000448a90042
:108ad0000080fa00004006003600f800809fbe00cb
:108ae000829fbe00849fbe00869fbe000000fa00e9
:108af0005128800000022000008060000000e0009b
:108b00001f00320051288000000022000080600019
:108b10000000e00005003200608380000000e000fb
:108b200002003200608380000000010051288000b4
:108b300000002100008060000000e000050032001d
:108b4000708380000000e00002003200708380002b
:108b5000000001005128800000802000008060009b
:108b60000000e00005003200808380000000e0008b
:108b70000200320080838000000001000aa5a900e5
:108b800050288000620060000000e0000600320013
:108b9000a08380000000e00002003200a08380007b
:108ba000000001000a25a9000708a9000080fa00ba
:108bb0004f03be004f02be004f01be004f00be007b
:108bc0003600f900004006000000fa0006e8a9009f
:108bd0000080fa00004006000040da000000fe00bd
:048be000000005008c
:020000040000fa
:048be400173a00003c
:020000040000fa
:108be8000200fa00000f78001e007800e10f500024
:108bf80009003200e10f500005003900e20f500073
:108c080007003200e30f5000070032000800370069
:108c180001eba8000600370011eba800040037009c
:108c280021eba8000200370031eba800000000008b
:108c38000080fa00000006000400fa00000f780027
:108c4800110798001e007800e10f50000b00320059
:108c5800e10f500005003900e20f50000b00320010
:108c6800e30f50000d003200100037009e00900006
:108c780021588800062bef000c0037009e0090005a
:108c8800a1588800162bef00080037009e009000be
:108c980021598800262bef00040037009e00900021
:108ca800a1598800362bef00000000000080fa0070
:108cb800000006000400fa00000f78001107980071
:108cc8001e007800e10f50000a003200e10f50004a
:108cd80005003900e20f500009003200e30f500090
:108ce8000a0032000c0037009e009000615888008e
:108cf800090037009e009000e15888000600370000
:108d08009e00900061598800030037009e00900083
:108d1800e1598800000000000080fa000000060009
:108d28000c00fa00004f9800510798000000eb0073
:108d3800100798000000eb00000f78006000b800f2
:108d480020079800310798000e4890000080fb002b
:108d5800c400dd00001021000080400010007800f1
:108d680061006000100798001e0090000000e000fd
:108d780018003a000e4890000080fb00c400dd0097
:108d8800001021000080400090007800c0ff210002
:108d9800008060004200de008000eb005e01900071
:108da8000089be005e009000a00090000100a100b4
:108db800210098000e4890000080fb00c400dd00f0
:108dc800001021000080400010007800620f600051
:108dd8006c0037000e4890000080fb00c400dd00e6
:108de8000010210000804000100078006101b800e8
:108df800c0ff210001002000020278000301780072
:108e08008001780001007800030262000000610020
:108e18008000eb00c000dd00000020000001be0063
:108e28006120b8000001710081817100220798005b
:108e3800330798002e009000be009000c000dd00af
:108e4800000020005e0190000089be005e009000d6
:108e580010027800900290000e4890000080fb00fd
:108e68004400dd008080e800001021000080400000
:108e7800100078006101b800f0ff20000100200018
:108e8800020378000301780080017800010078006f
:108e980003036300000061008000eb00c000dd00f8
:108ea800000020000001be006130b8000001710020
:108eb800818171004618dd00ca10de008100700053
:108ec8004610dd0004004000858048005e019000e7
:108ed8000089be005e0090001002780090029000a9
:108ee8000e4890000080fb004400dd00e4004000d4
:108ef8000010210000804000100078004a00de00c9
:108f08006101b800f0ff2f00010020000203780083
:108f180003017800800178000100780003036300f2
:108f2800000061008000eb00c000dd0000002000b0
:108f38000001be006130b80000017100818171003c
:108f480004004100858049005e0190000089be0050
:108f58005e009000a00090000100a0002100980091
:108f68000e4890000080fb004400dd00e400400053
:108f780000102100008040009000780000202000b0
:108f8800008f60001e0078000000e000050032003d
:108f98005e009000a00090000110a0002100980041
:108fa8007b0037005e009000a00090000110a10037
:108fb800210098005e009000300090008e489000dc
:108fc8008180fb00c408dd0066814000011021009b
:108fd80081004100910078008140780001487800c4
:108fe8005e009000300090000000e8008e4890007d
:108ff8008180fb00c408dd0066814000011021006b
:109008008100410091007800c808de0081407800a6
:10901800014878005e009000300090000080e80071
:109028008e4890008180fb00c408dd006881400004
:1090380001102100810041009100780081407800f2
:10904800014878005e009000300090006300400006
:109058008e4890008180fb00c408dd0068814000d4
:10906800011021008100410091007800c808de004d
:1090780081407800014878005e0090003000900040
:10908800640040008e4890008180fb00c408dd0029
:109098006a814000011021008100410091007800a0
:1090a80081407800014878005e0090003000900010
:1090b800650040008e4890008180fb00c408dd00f8
:1090c8006a81400001102100810041009100780070
:1090d800c808de0081407800014878005e009000f2
:1090e80030009000660040008e4890008180fb00b0
:1090f800c408dd006c81400001102100810041009e
:109108009100780081407800014878005e00900066
:1091180030009000670040008e4890008180fb007e
:10912800c408dd006c81400001102100810041006d
:1091380091007800c808de00814078000148780076
:109148000e4890000080fb004400dd00e400400071
:1091580000102100008040001000780000407800d6
:109168006f4060006f4060006f406000de0090005c
:109178000080fb006f0060004200dd00a10190004c
:1091880032fc2f000281610002007000a0009800ec
:109198000080fa00000006000400fa00000f7800c2
:1091a800110798001e0090002000900061006000e8
:1091b8000000e00015003a001e00900090009000aa
:1091c8001000780080007800f07f200000806000a8
:1091d800c200dd001e007800010878001e80e8004b
:1091e8008000eb00010878009e0078006480400051
:1091f8009e009000a1009000c208de00efc0600051
:109208008180fb0001087800250037001e009000cf
:1092180090009000100078004008de008000780080
:10922800c0ff210000806000800078000100a000dd
:109238001e007800010878001e81e8001e009000da
:109248009000900010007800ca09dd004600de009a
:1092580000807100c608de0080007800f0ff200062
:1092680000806000000978009e007800648140005a
:109278001e009000200090004200de006f40600059
:109288008081fb001e009000900090001000780084
:10929800000078004a00dd000080410000097800e5
:1092a8001e009000300090000000e0003b003200fb
:1092b8009e017800668041009e009000b1009000f9
:1092c8008100e800914078008180fb004809dd00ba
:1092d8009e009000b1009000914078008180fb00d2
:1092e80081004100010878009e00780068804000f5
:1092f8009e009000b1009000e3804000914078000b
:109308008180fb004809dd009e009000b1009000bc
:109318008180e800914078008180fb008100410055
:10932800010878009e0178006a8041009e00900044
:10933800b1009000e5804000914078008180fb00fa
:109348004809dd009e009000b1009000e4804000d4
:10935800914078008180fb0081004100010878007d
:109368009e0078006c8040009e009000b100900044
:10937800e7804000914078008180fb004809dd00cb
:109388009e009000b1009000e68040009140780077
:109398008180fb0081004100010878000080fa000c
:1093a800000006000000fa002468a9000c24ef0061
:1093b80001208000f08f2f000080600000a0a00036
:1093c800002088000000000001208000000e20001e
:1093d8008080600000082000808f5000faff3a006b
:1093e800300120008020880080192000902088000b
:1093f800100028003020880010002000a0208800dd
:109408000024ef000004a800c1208000c0ff2f0046
:1094180000806000c0208800802180007f006000fc
:1094280080218800a02180007f006000a0218800a2
:10943800c02180007f006000c02188008121800059
:10944800c0ff2f000080600080218800a1218000db
:10945800c0ff2f0000806000a0218800c12180008b
:10946800c0ff2f0000806000c02188003224ef0078
:109478003624ef003a24ef003064a9003464a900d0
:109488003864a900002280007f0060000022880064
:1094980001228000c0ff2f000080600000228800a9
:1094a8004224ef004064a9000121800000ff2f0042
:1094b800008060000030a000002188000004a9009e
:1094c80030e4a80031e4a80032e4a80033e4a8009e
:1094d80034e4a80035e4a80036e4a80037e4a8007e
:1094e80081218000c0ff2f0000806000802188005b
:1094f80081218000f0cf2f0000806000802188004b
:1095080091218000c0ff2f0000806000902188001a
:1095180091218000f0cf2f0000806000902188000a
:10952800a1218000c0ff2f0000806000a0218800da
:10953800a1218000f0cf2f0000806000a0218800ca
:10954800b1218000c0ff2f0000806000b02188009a
:10955800b1218000f0cf2f0000806000b02188008a
:109568002024ef002224ef002824ef002a24ef0013
:109578000a24a90001208000f08f2f0000806000dd
:10958800002088000000000001208000000e20005c
:10959800008060000000e000fbff3a0000d92400d2
:1095a8006101070040da24006901070080db24001c
:1095b80071010700c0dc240078010700e0dd240009
:1095c800800107002468a8000c24a8000ca4a800a7
:1095d8002448a8000080fa00000006000000fa00f5
:1095e800204420008000780020002000b1fd070002
:1095f8000010210080007800200020008efd070068
:109608002000200076fd07000080fa000000060018
:109618000000fa0000442000800078000000eb0001
:10962800a4fd070000102100800078000000eb0076
:1096380081fd07000000eb0069fd07000080fa00cb
:10964800000006000400fa00100798000000eb0074
:10965800000f780021000700e40f500006003200d8
:109668001e009000e10f5000030032001e00900021
:10967800e40f500014003a001e00900000407800eb
:10968800674060000080fb00670060004800dd0064
:1096980002208000f18f2f0081006100010070001e
:1096a8000020880000000000002080004500de0047
:1096b800674060008080fb001e009000808f500093
:1096c800f9ff3a000200370010002000000f780070
:1096d8001e0078000080fa00000006000000fa0072
:1096e800002080004500de00674060000080fb002d
:1096f8000080fa00000006000c00fa0040079800fd
:10970800510798000000eb00000f7800004320008c
:10971800100798000040eb00604798005e0090003a
:10972800200090004200de006f4060000080fb00d7
:10973800e80f5000010034001e00a0000000eb00fc
:1097480020079800280037001e00900090407800fd
:1097580000c8b30000c060000004e0001c00320034
:109768001e00900010407800684060000004e0008f
:1097780017003a00011021002e0090004400dd007f
:1097880000804000de00900083fe07004e0090003d
:1097980000407800e34060001e009000e3c06000d5
:1097a80090417800c2cfb30002c1610081407100ce
:1097b800014878001e009000904078000134a00015
:1097c8000148780010c0b3006047980009003700ce
:1097d8001e0090000000e800100798002e0090007e
:1097e8000000e800200798002e009000e70f5000c6
:1097f800d5ff36006e4090000004a2000004e0008f
:10980800020032009e007800638f70001e0078000e
:109818000080fa00000006000800fa0030079800ef
:109828000040eb00204798003e0090003000900078
:109838000000e00002003a002e4090002e003700a1
:1098480001218000210798002e0090000000e00010
:10985800280032000000eb00000f780020003700dd
:1098680050838000ae0090000008de0061006000b8
:10987800004078000004e0000e00320050838000b1
:1098880000407800be00900025fd0700508380004e
:10989800110020000008dd000080ea008000780048
:1098a80000218000008060000021880010c0b30003
:1098b80020479800508380000000e800508388000b
:1098c80050838000ef0f5000010036006a30ef002f
:1098d8002e4090000004e00005003a001e0fe8004a
:1098e8001e007800ef0f5000ddff36000100370042
:1098f800000000002e4090000080fa0000000600e2
:109908000000fa00502080004d00de006140600039
:109918000080fb0000f0a7000000ea000000ea0059
:109928004f00de00004078000080fa0000000600ca
:109938000000fa00502080004b00de00614060000b
:109948000080fb0000f0a7000000ea000000ea0029
:109958004f00de00004078000080fa00000006009a
:109968000000fa00502080004900de0061406000dd
:109978000080fb0000f0a7000000ea000000ea00f9
:109988004f00de00004078000080fa00000006006a
:109998000200fa000040eb00004f78000ec4bf0040
:1099a8000004e000050032000ec4bf000004e0001f
:1099b8000200350010c0b300004f78001e40780048
:1099c8000080fa00000006000000fa005020800025
:1099d8004c00de00614060000080fb0000f0a70042
:1099e8000000ea000000ea004f00de0000407800b6
:1099f8000080fa00000006000000fa0050208000f5
:109a08004a00de00614060000080fb0000f0a70013
:109a18000000ea000000ea004f00de000040780085
:109a28000080fa00000006000200fa000040eb0087
:109a3800004f78000fc4bf000004e00005003200aa
:109a48000fc4bf000004e0000200350010c0b300de
:109a5800004f78001e4078000080fa0000000600e1
:109a68000600fa000000eb00000f780001218000da
:109a7800210798002e0090000000e000110032003d
:109a88000000eb00100798000b0037001e00900044
:109a9800ae0090000008de00610060000040780021
:109aa8000004e000010032001e0fe8001e009000d4
:109ab8000000e800100798001e009000ef0f50000b
:109ac800f2ff36001e007800004078000080fa009f
:109ad800000006000000fa000ac4a9000cc4a8008f
:109ae80001208000f08f2f00008060000080a0001f
:109af800002088000000000001208000000e2000e7
:109b08008080600000022000808f5000faff3a0039
:109b18000080fa00000006000000fa00300107008b
:109b28000080fa00000006000200fa00000f78002a
:109b38001e007800008388000080fa0000000600fc
:109b48000000fa00290107000080fa000000060062
:109b58000200fa00000f78001e00780010838800c9
:109b68000080fa00000006000000fa002201070049
:109b78000080fa00000006000200fa00000f7800da
:109b88001e007800208388000080fa00000006008c
:109b98000000fa000080fa00000006000200fa0047
:109ba800000f78001e007800308388000080fa00db
:109bb800000006000000fa00120107000080fa0009
:109bc800000006000200fa00000f78001e0078006e
:109bd800408388000080fa00000006001400fa00a4
:109be800000f9800110f980003000900001feb00f8
:109bf8008e00b1007e0798001e089000900090002b
:109c08001000780040079800510798001e0890003f
:109c180040409000614060000080fb0061006000ef
:109c2800ee0090000100a10001007000600798009c
:109c38001e08900050409000614060000080fb00ca
:109c48006100600000004000ee0090000110a100db
:109c580001007000600798001e08900060409000a6
:109c68006f4060000080fb006f0060004200dd0074
:109c78006e01900031fc2f0081006100010070002e
:109c8800600798007e0090009e089000f1409000c8
:109c9800014878007e0090000000e8009e089000cf
:109ca80081489000014878007e0090000080e8001c
:109cb8009e08900091489000014878007e0090002e
:109cc800630040009e089000a14890000148780079
:109cd8007e009000640040009e089000b14890000b
:109ce800014878007e009000650040009e089000c2
:109cf800c1489000014878007e009000660040004e
:109d08009e089000d1489000014878007e0090009d
:109d1800670040009e089000e148900001487800e4
:109d280068004700800078000e08900072fe070067
:109d380000f0a7000000ea000000ea004f00de0083
:109d4800004078000080fa00000006001400fa00c5
:109d5800100f98000040eb00004f7800e10047002a
:109d6800070009008058eb000e00e800000f98007b
:109d78006a004700a8fe07000004e0004300320024
:109d88005e009000ee0090001e0990000089be0061
:109d98007e00900061406000804078001e089000be
:109da800414098007e009000620060000000e000e2
:109db800040032001e08900021c0b30051409800f2
:109dc800030037001e08900011c0b30051409800ee
:109dd8000e089000904078001e089000714098008e
:109de8000e0890000000e800904078001e089000df
:109df800014898000e0890000080e8009040780024
:109e08001e089000114898000e089000630040005a
:109e1800904078001e089000214898000e08900095
:109e280064004000904078001e0890003148980077
:109e38000e08900065004000904078001e089000d1
:109e4800414898000e089000660040009040780055
:109e58001e089000514898000e08900067004000c6
:109e6800904078001e089000614898007e0090009d
:109e78004200de006f406000804078001e089000bd
:109e88006140980010c0b300004f78001e40780071
:109e98000080fa00000006000000fa005020800050
:109ea8004d00de00614060000080fb0000f0a7006c
:109eb8000000ea000000ea004f00de0000407800e1
:109ec8000080fa00000006000000fa005020800020
:109ed8004b00de00614060000080fb0000f0a7003e
:109ee8000000ea000000ea004f00de0000407800b1
:109ef8000080fa00000006000000fa0050208000f0
:109f08004c00de00614060000080fb0000f0a7000c
:109f18000000ea000000ea004f00de000040780080
:109f28000080fa00000006000600fa000000eb00be
:109f3800000f780001218000210798002e00900072
:109f48000000e000110032000000eb00100798004c
:109f58000b0037001e009000ae0090000008de00e5
:109f680061006000004078000004e0000100320059
:109f78001e0fe8001e0090000000e800100798007f
:109f88001e009000ef0f5000f2ff36001e00780010
:109f9800004078000080fa00000006000000fa0087
:109fa8000ac4a9000cc4a80001208000f08f2f006b
:109fb800008060000080a0000020880000000000f1
:109fc80001208000000e2000808060000002200038
:109fd800808f5000faff3a000080fa000000060067
:109fe8000000fa000080fa00000006000000fa00f5
:109ff8000080fa00000006000000fa000080fa0065
:10a00800000006000000fa000080fa0000000600c8
:10a018000200fa00000f78001e007800e10f5000df
:10a0280009003200e10f500005003900e20f50002e
:10a0380007003200e30f5000070032000800370025
:10a0480001eba8000600370011eba8000400370058
:10a0580021eba8000200370031eba8000000000047
:10a068000080fa00000006000400fa00000f7800e3
:10a07800110798001e007800e10f50000b00320015
:10a08800e10f500005003900e20f50000b003200cc
:10a09800e30f50000d003200100037009e009000c2
:10a0a80021588800062bef000c0037009e00900016
:10a0b800a1588800162bef00080037009e0090007a
:10a0c80021598800262bef00040037009e009000dd
:10a0d800a1598800362bef00000000000080fa002c
:10a0e800000006000400fa00000f7800110798002d
:10a0f8001e007800e10f50000a003200e10f500006
:10a1080005003900e20f500009003200e30f50004b
:10a118000a0032000c0037009e0090006158880049
:10a12800090037009e009000e158880006003700bb
:10a138009e00900061598800030037009e0090003f
:10a14800e1598800000000000080fa0000000600c5
:10a158000c00fa00004f9800510798000000eb002f
:10a16800100798000000eb00000f78006000b800ae
:10a1780020079800310798000e4890000080fb00e7
:10a18800c400dd000020210000804000100078009d
:10a1980061006000100798001e0090000000e000b9
:10a1a80018003a000e4890000080fb00c400dd0053
:10a1b800002021000080400090007800c0ff2100ae
:10a1c800008060004200de008000eb005e0190002d
:10a1d8000089be005e009000a00090000100a10070
:10a1e800210098000e4890000080fb00c400dd00ac
:10a1f800002021000080400010007800620f6000fd
:10a208006c0037000e4890000080fb00c400dd00a1
:10a218000020210000804000100078006101b80093
:10a22800c0ff21000100200002027800030178002d
:10a2380080017800010078000302620000006100dc
:10a248008000eb00c000dd00000020000001be001f
:10a258006120b80000017100818171002207980017
:10a26800330798002e009000be009000c000dd006b
:10a27800000020005e0190000089be005e00900092
:10a2880010027800900290000e4890000080fb00b9
:10a298004400dd008080e8000020210000804000ac
:10a2a800100078006101b800f0ff200001002000d4
:10a2b800020378000301780080017800010078002b
:10a2c80003036300000061008000eb00c000dd00b4
:10a2d800000020000001be006130b80000017100dc
:10a2e800818171004618dd00ca10de00810070000f
:10a2f8004610dd0004004000858048005e019000a3
:10a308000089be005e009000100278009002900064
:10a318000e4890000080fb004400dd00e40040008f
:10a328000020210000804000100078004a00de0074
:10a338006101b800f0ff2f0001002000020378003f
:10a3480003017800800178000100780003036300ae
:10a35800000061008000eb00c000dd00000020006c
:10a368000001be006130b8000001710081817100f8
:10a3780004004100858049005e0190000089be000c
:10a388005e009000a00090000100a000210098004d
:10a398000e4890000080fb004400dd00e40040000f
:10a3a800002021000080400090007800002020005c
:10a3b800008f60001e0078000000e00005003200f9
:10a3c8005e009000a00090000110a00021009800fd
:10a3d8007b0037005e009000a00090000110a100f3
:10a3e800210098005e009000300090008e48900098
:10a3f8008180fb00c408dd00668140000120210047
:10a40800810041009100780081407800014878007f
:10a418005e009000300090000000e8008e48900038
:10a428008180fb00c408dd00668140000120210016
:10a438008100410091007800c808de008140780062
:10a44800014878005e009000300090000080e8002d
:10a458008e4890008180fb00c408dd0068814000c0
:10a46800012021008100410091007800814078009e
:10a47800014878005e0090003000900063004000c2
:10a488008e4890008180fb00c408dd006881400090
:10a49800012021008100410091007800c808de00f9
:10a4a80081407800014878005e00900030009000fc
:10a4b800640040008e4890008180fb00c408dd00e5
:10a4c8006a8140000120210081004100910078004c
:10a4d80081407800014878005e00900030009000cc
:10a4e800650040008e4890008180fb00c408dd00b4
:10a4f8006a8140000120210081004100910078001c
:10a50800c808de0081407800014878005e009000ad
:10a5180030009000660040008e4890008180fb006b
:10a52800c408dd006c814000012021008100410049
:10a538009100780081407800014878005e00900022
:10a5480030009000670040008e4890008180fb003a
:10a55800c408dd006c814000012021008100410019
:10a5680091007800c808de00814078000148780032
:10a578000e4890000080fb004400dd00e40040002d
:10a588000020210000804000100078000040780082
:10a598006f4060006f4060006f406000de00900018
:10a5a8000080fb006f0060004200dd00a101900008
:10a5b80032fc2f000281610002007000a0009800a8
:10a5c8000080fa00000006000400fa00000f78007e
:10a5d800110798001e0090002000900061006000a4
:10a5e8000000e00015003a001e0090009000900066
:10a5f8001000780080007800f07f20000080600064
:10a60800c200dd001e007800010878001e80e80006
:10a618008000eb00010878009e007800648040000c
:10a628009e009000a1009000c208de00efc060000c
:10a638008180fb0001087800250037001e0090008b
:10a6480090009000100078004008de00800078003c
:10a65800c0ff210000806000800078000100a00099
:10a668001e007800010878001e81e8001e00900096
:10a678009000900010007800ca09dd004600de0056
:10a6880000807100c608de0080007800f0ff20001e
:10a6980000806000000978009e0078006481400016
:10a6a8001e009000200090004200de006f40600015
:10a6b8008081fb001e009000900090001000780040
:10a6c800000078004a00dd000080410000097800a1
:10a6d8001e009000300090000000e0003b003200b7
:10a6e8009e017800668041009e009000b1009000b5
:10a6f8008100e800914078008180fb004809dd0076
:10a708009e009000b1009000914078008180fb008d
:10a7180081004100010878009e00780068804000b0
:10a728009e009000b1009000e380400091407800c6
:10a738008180fb004809dd009e009000b100900078
:10a748008180e800914078008180fb008100410011
:10a75800010878009e0178006a8041009e00900000
:10a76800b1009000e5804000914078008180fb00b6
:10a778004809dd009e009000b1009000e480400090
:10a78800914078008180fb00810041000108780039
:10a798009e0078006c8040009e009000b100900000
:10a7a800e7804000914078008180fb004809dd0087
:10a7b8009e009000b1009000e68040009140780033
:10a7c8008180fb0081004100010878000080fa00c8
:10a7d800000006000000fa002708a9000c25ef0079
:10a7e80001288000f08f2f000080600000a0a000ea
:10a7f800002888000000000001288000000e2000ca
:10a808008080600000082000808f5000faff3a0026
:10a8180030002000802888008019200090288800b7
:10a82800100028003028880010002000a028880088
:10a838000025ef000005a800c1288000c0ff2f00f8
:10a8480000806000c0288800802980007f006000a8
:10a8580080298800a02980007f006000a029880046
:10a86800c02980007f006000c029880081298000fd
:10a87800c0ff2f000080600080298800a129800087
:10a88800c0ff2f0000806000a0298800c129800037
:10a89800c0ff2f0000806000c02988003225ef002b
:10a8a8003625ef003a25ef003065a9003465a90088
:10a8b8003865a900002a80007f006000002a88000f
:10a8c800012a8000c0ff2f0000806000002a880055
:10a8d8004225ef004065a9000129800000ff2f00f4
:10a8e800008060000030a000002988000005a90051
:10a8f80030e5a80031e5a80032e5a80033e5a80056
:10a9080034e5a80035e5a80036e5a80037e5a80035
:10a9180081298000c0ff2f00008060008029880006
:10a9280081298000f0cf2f000080600080298800f6
:10a9380091298000c0ff2f000080600090298800c6
:10a9480091298000f0cf2f000080600090298800b6
:10a95800a1298000c0ff2f0000806000a029880086
:10a96800a1298000f0cf2f0000806000a029880076
:10a97800b1298000c0ff2f0000806000b029880046
:10a98800b1298000f0cf2f0000806000b029880036
:10a998002025ef002225ef002825ef002a25ef00cb
:10a9a8000a25a90001288000f08f2f000080600090
:10a9b800002888000000000001288000000e200008
:10a9c800008060000000e000fbff3a00807a25006c
:10a9d80061010700c07b250069010700007d250093
:10a9e80071010700407e250078010700607f25007f
:10a9f800800107002708a8000c25a8000ca5a800be
:10aa080026e8a8000080fa00000006000000fa000e
:10aa1800205420008000780030002000b1fd07009d
:10aa28000020210080007800300020008efd070003
:10aa38003000200076fd07000080fa0000000600c4
:10aa48000000fa0000542000800078001000200068
:10aa5800a4fd0700002021008000780010002000dd
:10aa680081fd07001000200069fd07000080fa0042
:10aa7800000006000400fa00100798000000eb0030
:10aa8800000f780021000700e40f50000600320094
:10aa98001e009000e10f5000030032001e009000dd
:10aaa800e40f500014003a001e00900000407800a7
:10aab800674060000080fb00670060004800dd0020
:10aac80002288000f18f2f008100610001007000d2
:10aad8000028880000000000002880004500de00f3
:10aae800674060008080fb001e009000808f50004f
:10aaf800f9ff3a000200370010002000000f78002c
:10ab08001e0078000080fa00000006000000fa002d
:10ab1800002880004500de00674060000080fb00e0
:10ab28000080fa00000006000c00fa0040079800b8
:10ab3800510798000000eb00000f78000053200038
:10ab4800100798000040eb00604798005e009000f6
:10ab5800200090004200de006f4060000080fb0093
:10ab6800e80f5000010034001e00a0000000eb00b8
:10ab780020079800280037001e00900090407800b9
:10ab880000c8b30000c060000004e0001c003200f0
:10ab98001e00900010407800684060000004e0004b
:10aba80017003a00012021002e0090004400dd002b
:10abb80000804000de00900083fe07004e009000f9
:10abc80000407800e34060001e009000e3c0600091
:10abd80090417800c2cfb30002c16100814071008a
:10abe800014878001e009000904078000134a000d1
:10abf8000148780010c0b30060479800090037008a
:10ac08001e0090000000e800100798002e00900039
:10ac18000000e800200798002e009000e70f500081
:10ac2800d5ff36006e4090000004a2000004e0004a
:10ac3800020032009e007800638f70001e007800ca
:10ac48000080fa00000006000800fa0030079800ab
:10ac58000040eb00204798003e0090003000900034
:10ac68000000e00002003a002e4090002e0037005d
:10ac780001298000210798002e0090000000e000c4
:10ac8800280032000000eb00000f78002000370099
:10ac9800b0838000ae0090000008de006100600014
:10aca800004078000004e0000e003200b08380000d
:10acb80000407800be00900025fd0700b0838000aa
:10acc800110020000008dd000080ea008000780004
:10acd80000298000008060000029880010c0b300af
:10ace80020479800b08380000000e800b083880007
:10acf800b0838000ef0f5000010036007630ef007f
:10ad08002e4090000004e00005003a001e0fe80005
:10ad18001e007800ef0f5000ddff360001003700fd
:10ad2800000000002e4090000080fa00000006009d
:10ad38000000fa00502880004d00de0061406000ed
:10ad48000080fb0000f0a7000000ea000000ea0015
:10ad58004f00de00004078000080fa000000060086
:10ad68000000fa00502880004b00de0061406000bf
:10ad78000080fb0000f0a7000000ea000000ea00e5
:10ad88004f00de00004078000080fa000000060056
:10ad98000000fa00502880004900de006140600091
:10ada8000080fb0000f0a7000000ea000000ea00b5
:10adb8004f00de00004078000080fa000000060026
:10adc8000200fa000040eb00004f78000ec5bf00fb
:10add8000004e000050032000ec5bf000004e000da
:10ade8000200350010c0b300004f78001e40780004
:10adf8000080fa00000006000000fa0050288000d9
:10ae08004c00de00614060000080fb0000f0a700fd
:10ae18000000ea000000ea004f00de000040780071
:10ae28000080fa00000006000000fa0050288000a8
:10ae38004a00de00614060000080fb0000f0a700cf
:10ae48000000ea000000ea004f00de000040780041
:10ae58000080fa00000006000200fa000040eb0043
:10ae6800004f78000fc5bf000004e0000500320065
:10ae78000fc5bf000004e0000200350010c0b30099
:10ae8800004f78001e4078000080fa00000006009d
:10ae98000600fa000000eb00000f7800012980008e
:10aea800210798002e0090000000e00011003200f9
:10aeb8000000eb00100798000b0037001e00900000
:10aec800ae0090000008de006100600000407800dd
:10aed8000004e000010032001e0fe8001e00900090
:10aee8000000e800100798001e009000ef0f5000c7
:10aef800f2ff36001e007800004078000080fa005b
:10af0800000006000000fa000ac5a9000cc5a80048
:10af180001288000f08f2f00008060000080a000d2
:10af2800002888000000000001288000000e200092
:10af38008080600000022000808f5000faff3a00f5
:10af48000080fa00000006000000fa003001070047
:10af58000080fa00000006000200fa00000f7800e6
:10af68001e007800608388000080fa000000060058
:10af78000000fa00290107000080fa00000006001e
:10af88000200fa00000f78001e0078007083880025
:10af98000080fa00000006000000fa002201070005
:10afa8000080fa00000006000200fa00000f780096
:10afb8001e007800808388000080fa0000000600e8
:10afc8000000fa000080fa00000006000200fa0003
:10afd800000f78001e007800908388000080fa0037
:10afe800000006000000fa00120107000080fa00c5
:10aff800000006000200fa00000f78001e0078002a
:10b00800a08388000080fa00000006001400fa00ff
:10b01800000f9800110f980003000900001feb00b3
:10b028008e00b1007e0798001e08900090009000e6
:10b038001000780040079800510798001e089000fb
:10b0480040409000614060000080fb0061006000ab
:10b05800ee0090000100a100010070006007980058
:10b068001e08900050409000614060000080fb0086
:10b078006100600000004000ee0090000110a10097
:10b0880001007000600798001e0890006040900062
:10b098006f4060000080fb006f0060004200dd0030
:10b0a8006e01900031fc2f008100610001007000ea
:10b0b800600798007e0090009e089000f140900084
:10b0c800014878007e0090000000e8009e0890008b
:10b0d80081489000014878007e0090000080e800d8
:10b0e8009e08900091489000014878007e009000ea
:10b0f800630040009e089000a14890000148780035
:10b108007e009000640040009e089000b1489000c6
:10b11800014878007e009000650040009e0890007d
:10b12800c1489000014878007e0090006600400009
:10b138009e089000d1489000014878007e00900059
:10b14800670040009e089000e148900001487800a0
:10b1580068004700800078000e08900072fe070023
:10b1680000f0a7000000ea000000ea004f00de003f
:10b17800004078000080fa00000006001400fa0081
:10b18800100f98000040eb00004f7800e1004700e6
:10b19800070009008058eb000e00e800000f980037
:10b1a8006a004700a8fe07000004e00043003200e0
:10b1b8005e009000ee0090001e0990000089be001d
:10b1c8007e00900061406000804078001e0890007a
:10b1d800414098007e009000620060000000e0009e
:10b1e800040032001e08900021c0b30051409800ae
:10b1f800030037001e08900011c0b30051409800aa
:10b208000e089000904078001e0890007140980049
:10b218000e0890000000e800904078001e0890009a
:10b22800014898000e0890000080e80090407800df
:10b238001e089000114898000e0890006300400016
:10b24800904078001e089000214898000e08900051
:10b2580064004000904078001e0890003148980033
:10b268000e08900065004000904078001e0890008d
:10b27800414898000e089000660040009040780011
:10b288001e089000514898000e0890006700400082
:10b29800904078001e089000614898007e00900059
:10b2a8004200de006f406000804078001e08900079
:10b2b8006140980010c0b300004f78001e4078002d
:10b2c8000080fa00000006000000fa005028800004
:10b2d8004d00de00614060000080fb0000f0a70028
:10b2e8000000ea000000ea004f00de00004078009d
:10b2f8000080fa00000006000000fa0050288000d4
:10b308004b00de00614060000080fb0000f0a700f9
:10b318000000ea000000ea004f00de00004078006c
:10b328000080fa00000006000000fa0050288000a3
:10b338004c00de00614060000080fb0000f0a700c8
:10b348000000ea000000ea004f00de00004078003c
:10b358000080fa00000006000600fa000000eb007a
:10b36800000f780001298000210798002e00900026
:10b378000000e000110032000000eb001007980008
:10b388000b0037001e009000ae0090000008de00a1
:10b3980061006000004078000004e0000100320015
:10b3a8001e0fe8001e0090000000e800100798003b
:10b3b8001e009000ef0f5000f2ff36001e007800cc
:10b3c800004078000080fa00000006000000fa0043
:10b3d8000ac5a9000cc5a80001288000f08f2f001d
:10b3e800008060000080a0000028880000000000a5
:10b3f80001288000000e20008080600000022000ec
:10b40800808f5000faff3a000080fa000000060022
:10b418000000fa000080fa00000006000000fa00b0
:10b428000080fa00000006000000fa000080fa0020
:10b43800000006000000fa000080fa000000060084
:10b448000000fa003430ef003630ef003170ef00c2
:10b458003270ef003370ef00a0bf2500dc05070055
:10b46800090707005df8070069f8070067fd07008e
:10b4780073fd0700c0c02500d2f90700a0c325004e
:10b48800dcfe0700da0507003010a9003030a900fb
:10b498003050a9003070a9003090a90030b0a80041
:10b4a800040221006000b8006011b800009abe00d4
:10b4b8000292be0002022100100c200001002000b0
:10b4c8000089be000002210001032100914078009c
:10b4d80041409800410821000002210031009800f5
:10b4e800840221006000b8006011b800009abe0014
:10b4f8000292be0082022100200c200001002000e0
:10b508000089be00800221000103210091407800db
:10b518004140980040082100e800400080022100d6
:10b5280031009800840021006000b8006011b80064
:10b53800009abe000292be0082002100b0012000e5
:10b54800010020000089be008000210001032100c5
:10b55800914078004140980040082100f0004000e8
:10b568008000210031009800840121006000b800ab
:10b578006011b800009abe000292be00820121004c
:10b58800a0022000010020000089be0080012100e7
:10b5980001032100914078004140980040082100b3
:10b5a800f800400080012100310098004008210087
:10b5b8000102200080804000000021003100980036
:10b5c8004008210081022000808040000001210005
:10b5d8003100980080002100300090006700400092
:10b5e80071c0b3000148780080012100300090004c
:10b5f8006700400071c0b30001487800054ea800fc
:10b6080024cea8000100370000000000400b2100f4
:10b618001801070033f0b700a2818000b3818000d1
:10b62800e0818000f1818000800f5100818f5900f6
:10b638000c003900a0818000b18180006a004000c0
:10b64800e0804800e0818800f181880081002100c5
:10b658002000200028f80700810121002000200098
:10b6680031fd0700a2818000b38180000082800044
:10b6780011828000800f5100818f59000c00390021
:10b68800a0818000b181800074004000e080480003
:10b69800008288001182880032d0bf000040e80094
:10b6a80032f0b70021c0b300b0c0b3008600070075
:10b6b800a2818000b3818000c0818000d181800098
:10b6c800800f5100818f5900cfff3900a081800081
:10b6d800b18180004006b0000180b000c0818800c0
:10b6e800d181880031d0bf000040e80031f0b700b8
:10b6f80033d0bf000004e0002b003200800221009c
:10b70800300090000000e800510b210091407800c3
:10b718000148780080022100300090000080e80095
:10b72800610b2100914078000148780080022100d7
:10b738003000900063004000710b210091407800b8
:10b748000148780080022100300090006400400029
:10b75800810b210091407800014878008002210087
:10b768003000900065004000910b21009140780066
:10b7780001487800800221003000900066004000f7
:10b78800a10b210091407800014878008002210037
:10b798003000900067004000b10b21009140780014
:10b7a800014878003370ef0000022100300090005b
:10b7b800110321009140780001487800800221009f
:10b7c8003000900011032100914078000148780072
:10b7d8000102210010002000c7f7070081022100a4
:10b7e80010002000d0fc070088ff37000000fa0096
:10b7f800a0818000b181800061004000e0804800a5
:10b80800a0818800b18188000080fa00000006004d
:10b818000000fa0000002100fff707000004e00024
:10b828001000320000002100100178009001900003
:10b83800a001200001002000800f5100818f5900d5
:10b8480008003a00800121003000900067004000a5
:10b8580001002100b1009000e7804000914078008d
:10b86800014878000080fa00000006000000fa0095
:10b8780000012100f4fc07000004e0001000320081
:10b88800000121001001780090019000b002200012
:10b8980001002000800f5100818f590008003a00f4
:10b8a8008000210030009000670040000101210065
:10b8b800b1009000e780400091407800014878008e
:10b8c8000080fa00000006000a00fa00004f980005
:10b8d800114f9800a0818000b1818000a200200053
:10b8e80003002000021f4000039748000e48900004
:10b8f8006f406000404798001e4890000080fb00a1
:10b908004400dd000040780003c3b30083406000ba
:10b918004e40900000c07000404798004e40900094
:10b9280061406000504798004e4090000080fb0046
:10b938000000d10000407800e14060005e409000c7
:10b9480000c06800504798004e4090000080fb00ff
:10b958004200de0000407800e14060005e40900058
:10b9680000c06800504798004e4090000080fb00df
:10b978004400de0000407800e14060005e40900036
:10b9880000c06800504798004e4090000080fb00bf
:10b998000000d100004078006140600060479800d6
:10b9a8004e4090000080fb004300de00004078001d
:10b9b800e14060006e40900000c068006047980059
:10b9c8004e4090000080fb004400de0000407800fc
:10b9d800e14060006e40900000c068006047980039
:10b9e8004e4090000080fb004500de0000407800db
:10b9f800e14060006e40900000c068006047980019
:10ba08006e4090000004a200604798005e409000dd
:10ba18000080fb00610060004600dd008040780087
:10ba28004e40900000c07000404798006e40900063
:10ba38000080fb004700dd00804078004e40900009
:10ba480000c07000404798003362a8000040eb0037
:10ba58000b02070050c5b300090207004e409000d2
:10ba6800070207001e0078009e0090000080fa0080
:10ba7800000006000400fa00881f780010079800ec
:10ba88000040eb0010479800028480001384800077
:10ba9800a0818000b1818000800f5100818f590002
:10baa8001d003e000040eb00004f78000600370004
:10bab8001e80fb009e009000008040008040eb004c
:10bac800014878001e4fe8001e407800ea4f5000f9
:10bad800f7ff36000040eb00004f78000800370001
:10bae8001e80fb009e00900000844000ce010700ed
:10baf800004c78001e4fe80010c0b30010479800b3
:10bb08001e407800ea4f500003003e00f101070094
:10bb18000004e000f2ff3a001e4090004f04780055
:10bb28000080fa00000006000000fa002188a90041
:10bb38002168a90080002000001188002222ef005f
:10bb48004004200040118800000e21005082880027
:10bb5800000e210040828800900e2100308288006b
:10bb6800900e2100208288004c70ef0040de2500f6
:10bb78000700070020e02500140007002168a8003e
:10bb880021e2a8002342a8000080fa000000060075
:10bb98000200fa00000f78001e0078000000e000a4
:10bba80003003a0040de250070828800020037005a
:10bbb8009e007800718288000080fa00000006006c
:10bbc8000000fa000080fa00000006000200fa00f7
:10bbd800000f78001e0078000000e00003003a0023
:10bbe80020e0250080828800020037009e0078004f
:10bbf800818288000080fa00000006000000fa0038
:10bc08000080fa00000006000200fa000040eb0085
:10bc1800004f780000000000318280002082800000
:10bc2800808f5000fcff320030828000104f780077
:10bc3800308280000000e800308288003182800075
:10bc4800200f2100808f500002003a00900e210042
:10bc5800308288001e4078000080fa00000006004c
:10bc68000200fa00004f7800000000001c000700e6
:10bc78000004a2000004e000fcff3a0040828000bb
:10bc88001e487800408280000000e800408288005a
:10bc980041828000900e2100808f500002003a00ff
:10bca800000e2100408288002188a8000080fa0048
:10bcb800000006000000fa00318280002082800027
:10bcc8000080680000f0a7000000ea000000ea0019
:10bcd8004f00de00004078000080fa0000000600f7
:10bce8000400fa0051828000110798004182800008
:10bcf8001e009000808f5000060031009e009000ca
:10bd080040828000008050000000e900000f7800a9
:10bd1800050037009e00900040828000008050009f
:10bd280068004000000f78001e00780000f0a700af
:10bd38000000ea000000ea004f00de000040780042
:10bd48000080fa00000006000000fa00418280002e
:10bd580050828000808f500009003a001111800045
:10bd6800001020000080600000f0a7000000ea003a
:10bd78000000ea004f00de000040780001003700b4
:10bd88000040eb000080fa00000006000400fa0002
:10bd98002182800011079800308280009e00900068
:10bda800808f5000060031009e0090003082800095
:10bdb8000080500069004000000f78000400370040
:10bdc8009e0090003082800000805000000f7800b4
:10bdd800f00f20009e007800808f5000020036008f
:10bde80000c0eb00020037001e0078000040780019
:10bdf8000080fa00000006000400fa00518280006a
:10be080011079800418280001e009000808f50002a
:10be1800060031009e0090004082800000805000a3
:10be28000000e900000f7800050037009e00900030
:10be3800408280000080500068004000000f7800b9
:10be4800f00f20009e007800808f5000020036001e
:10be580000c0eb00020037001e00780000407800a8
:10be68000080fa00000006000800fa002007980089
:10be780031079800c5ff07000080fb00000f78001d
:10be88003e0090009e0f500002003100be0090005e
:10be9800010f78000000eb00100798000900370038
:10bea80059ff0700ae009000804878002e009000ef
:10beb8000000e800200798001e0090000000e8003d
:10bec800100798001e0090009e0f5000f4ff3900e4
:10bed8001e0078000080fa00000006000800fa0042
:10bee8002007980031079800c3ff07000080fb0077
:10bef800000f78003e0090009e0f500002003100b5
:10bf0800be009000010f78000000eb0010079800b9
:10bf1800090037002e00900010407800ae00900015
:10bf28008100e800210798004dff07001e009000df
:10bf38000000e800100798001e0090009e0f5000b7
:10bf4800f4ff39001e0078000080fa0000000600a7
:10bf58000400fa000000eb00000f78008bff0700d8
:10bf680020479800a4ff0700304798002e40900013
:10bf78000080fb000000e00003003200e90f5000e1
:10bf880003003200040037001e20a0000400370020
:10bf98001e00a000020037001e10a00000000000d4
:10bfa8003e4090000080fb000000e00003003200eb
:10bfb800e90f500003003200040037001e30a000d3
:10bfc800020037001e40a000000000001e0078009c
:10bfd8000080fa00000006000400fa00100798002c
:10bfe800318280001e009000008f40000200370060
:10bff8009e007800698f5000200f21009e00780075
:10c00800808f5000faff3e001e0078001040780034
:10c018000080fa00000006000000fa005bff07003d
:10c028000080fb000000e9004f00de0000407800bf
:10c038000080fa00000006000000fa006eff07000a
:10c048000080fb000000e9004f00de00004078009f
:10c058000080fa00000006000000fa0010118000bd
:10c068000080fa00000006000000fa0062ff0700e6
:10c078000004e000100032005182800040828000fd
:10c08800808f5000060036005082800080007800c3
:10c0980040828000008050000000e900070037005f
:10c0a800508280008000780040828000008050002c
:10c0b80068004000010037000000eb000080fa0033
:10c0c800000006000000fa0030ff07000004e0004e
:10c0d800100032003182800020828000808f500062
:10c0e80006003600308280008000780020828000c0
:10c0f800008050000000e90007003700308280000f
:10c108008000780020828000008050006800400095
:10c11800010037000000eb000080fa000000060074
:10c128000000fa0021e2a8002342a8000080fa00db
:10c13800000006000000fa0021e2a9002342a9003d
:10c148000080fa00000006000000fa0023e8a900b9
:10c1580023c8a90080002000801188003222ef0047
:10c16800001a2000c011880000302100c082880019
:10c1780000302100b082880090302100a082880021
:10c1880090302100908288005a70ef00400f2600fe
:10c1980007000700201126001400070023c8a80084
:10c1a80031e2a8003342a8000080fa00000006002f
:10c1b8000200fa00000f78001e0078000000e0007e
:10c1c80003003a00400f2600e08288000200370092
:10c1d8009e007800e18288000080fa0000000600d6
:10c1e8000000fa000080fa00000006000200fa00d1
:10c1f800000f78001e0078000000e00003003a00fd
:10c2080020112600f0828800020037009e00780086
:10c21800f18288000080fa00000006000000fa00a1
:10c228000080fa00000006000200fa000040eb005f
:10c23800004f780000000000a182800090828000fa
:10c24800808f5000fcff3200a0828000104f7800e1
:10c25800a08280000000e800a0828800a1828000ff
:10c2680020312100808f500002003a0090302100d8
:10c27800a08288001e4078000080fa0000000600b6
:10c288000200fa00004f7800000000001c000700c0
:10c298000004a2000004e000fcff3a00b082800025
:10c2a8001e487800b08280000000e800b082880054
:10c2b800b182800090302100808f500002003a0047
:10c2c80000302100b082880023e8a8000080fa002e
:10c2d800000006000000fa00a18280009082800021
:10c2e8000080680000f0a7000000ea000000ea00f3
:10c2f8004f00de00004078000080fa0000000600d1
:10c308000400fa00c182800011079800b182800001
:10c318001e009000808f5000060031009e009000a3
:10c32800b0828000008050000000e900000f780013
:10c33800050037009e009000b08280000080500009
:10c3480068004000000f78001e00780000f0a70089
:10c358000000ea000000ea004f00de00004078001c
:10c368000080fa00000006000000fa00b182800098
:10c37800c0828000808f500009003a00911180002f
:10c38800001020000080600000f0a7000000ea0014
:10c398000000ea004f00de0000407800010037008e
:10c3a8000040eb000080fa00000006000400fa00dc
:10c3b8009182800011079800a08280009e00900062
:10c3c800808f5000060031009e009000a0828000ff
:10c3d8000080500069004000000f7800040037001a
:10c3e8009e009000a082800000805000000f78001e
:10c3f800f00f20009e007800808f50000200360069
:10c4080000c0eb00020037001e00780000407800f2
:10c418000080fa00000006000400fa00c1828000d3
:10c4280011079800b18280001e009000808f500094
:10c43800060031009e009000b0828000008050000d
:10c448000000e900000f7800050037009e0090000a
:10c45800b08280000080500068004000000f780023
:10c46800f00f20009e007800808f500002003600f8
:10c4780000c0eb00020037001e0078000040780082
:10c488000080fa00000006000800fa002007980063
:10c4980031079800c5ff07000080fb00000f7800f7
:10c4a8003e0090009e0f500002003100be00900038
:10c4b800010f78000000eb00100798000900370012
:10c4c80059ff0700ae009000804878002e009000c9
:10c4d8000000e800200798001e0090000000e80017
:10c4e800100798001e0090009e0f5000f4ff3900be
:10c4f8001e0078000080fa00000006000800fa001c
:10c508002007980031079800c3ff07000080fb0050
:10c51800000f78003e0090009e0f5000020031008e
:10c52800be009000010f78000000eb001007980093
:10c53800090037002e00900010407800ae009000ef
:10c548008100e800210798004dff07001e009000b9
:10c558000000e800100798001e0090009e0f500091
:10c56800f4ff39001e0078000080fa000000060081
:10c578000400fa000000eb00000f78008bff0700b2
:10c5880020479800a4ff0700304798002e409000ed
:10c598000080fb000000e00003003200e90f5000bb
:10c5a80003003200040037001e20a00004003700fa
:10c5b8001e00a000020037001e10a00000000000ae
:10c5c8003e4090000080fb000000e00003003200c5
:10c5d800e90f500003003200040037001e30a000ad
:10c5e800020037001e40a000000000001e00780076
:10c5f8000080fa00000006000400fa001007980006
:10c60800a18280001e009000008f400002003700c9
:10c618009e007800698f5000203121009e0078002c
:10c62800808f5000faff3e001e007800104078000e
:10c638000080fa00000006000000fa005bff070017
:10c648000080fb000000e9004f00de000040780099
:10c658000080fa00000006000000fa006eff0700e4
:10c668000080fb000000e9004f00de000040780079
:10c678000080fa00000006000000fa009011800017
:10c688000080fa00000006000000fa0062ff0700c0
:10c698000004e00010003200c1828000b0828000f7
:10c6a800808f500006003600c0828000800078002d
:10c6b800b0828000008050000000e90007003700c9
:10c6c800c082800080007800b08280000080500026
:10c6d80068004000010037000000eb000080fa000d
:10c6e800000006000000fa0030ff07000004e00028
:10c6f80010003200a182800090828000808f50005c
:10c7080006003600a08280008000780090828000b9
:10c71800008050000000e90007003700a082800078
:10c7280080007800908280000080500068004000ff
:10c73800010037000000eb000080fa00000006004e
:10c748000000fa0031e2a8003342a8000080fa0095
:10c75800000006000000fa0031e2a9003342a900f7
:10c768000080fa00000006000000fa00003a80008d
:10c778000080fa00000006000200fa00faff070035
:10c78800000f78001e007800240007000004e00075
:10c798000200320000002800710007001e00780027
:10c7a8002a0007000004e000020032000000240014
:10c7b8006b0007001e007800320007000004e0004c
:10c7c8000200320000202000650007001e007800eb
:10c7d8003a0007000004e0000200320000082000d0
:10c7e8005f0007001e007800420007000004e00018
:10c7f8000200320000042000590007001e007800e3
:10c808004a0007000004e000020032000001200096
:10c81800530007000080fa00000006000400fa0038
:10c82800100798000040eb00004f78001e009000b1
:10c838000000e00002003d0010c0b300004f780087
:10c848001e4078000080fa00000006000400fa008c
:10c85800100798000040eb00004f78009e00900001
:10c8680000002400008060000000e00002003200a8
:10c8780010c0b300004f78001e4078000080fa0016
:10c88800000006000400fa00100798000040eb00c2
:10c89800004f78009e00900000202000008060007b
:10c8a8000000e0000200320010c0b300004f780022
:10c8b8001e4078000080fa00000006000400fa001c
:10c8c800100798000040eb00004f78009e00900091
:10c8d80000082000008060000000e0000200320034
:10c8e80010c0b300004f78001e4078000080fa00a6
:10c8f800000006000400fa00100798000040eb0052
:10c90800004f78009e009000000420000080600026
:10c918000000e0000200320010c0b300004f7800b1
:10c928001e4078000080fa00000006000400fa00ab
:10c93800100798000040eb00004f78001e009000a0
:10c94800700060000000e0000200320010c0b30078
:10c95800004f78001e4078000080fa0000000600b2
:10c968000200fa00000f78009e80ea00003a80007a
:10c9780000806000003a88000080fa00000006008d
:10c988000000fa004027ef000080fa0000000600cf
:10c998000000fa00004020002070880000502100ac
:10c9a800a0708800000c20002071880070382000da
:10c9b80000708800f0ce2f0080708800d01b200007
:10c9c800007188000c2eef001c2eef002c2eef00bb
:10c9d8000a2eef001a2eef002a2eef00062eef0087
:10c9e800162eef00262eef00202020007070880001
:10c9f80030002000f0708800c003200070718800ab
:10ca0800113a8000f00b20000081600060042000d3
:10ca1800710520002374200080497800814978003e
:10ca280082497800a136800000f82f0080806000dd
:10ca38000003200001007000a03688003136800015
:10ca480000f82f0080806000700320000100700053
:10ca58003036880071348000f00f2c008080600030
:10ca680000f020000100700070348800213680003a
:10ca780000f82f0080806000700220000100700024
:10ca8800203688000134800000fc2f008080600080
:10ca98001003200001007000003488003134800049
:10caa800f00f2c0080806000003020000100700032
:10cab800303488001134800000fc2f0000806000b2
:10cac800f000b30010348800a1368000f00f280071
:10cad800808060000080210001007000a03688007e
:10cae8003134800000fc2f00008060000000a000ae
:10caf8003034880051348000f00f2c0080806000b2
:10cb080000e0200001007000503488000080fa0026
:10cb1800000006000000fa000021ef00301f20008e
:10cb2800100888000002280020088800e0838000a0
:10cb38000000e00002003a00605e260024000700c2
:10cb48000068a9002068a800200f21008040eb00a1
:10cb5800014878000080fa00000006000200fa0090
:10cb6800000f78009e00780011088800200f21002f
:10cb78008040eb00014878000080fa0000000600c1
:10cb88000000fa00100880000080fa00000006008b
:10cb98000200fa00000f78009e0078000108880063
:10cba800200f21008040eb00014878000080fa0047
:10cbb800000006000000fa00000880000080fa006b
:10cbc800000006000000fa000080fa0000000600dd
:10cbd8000200fa00000f78002068a9009e00780083
:10cbe800e18388002068a8000080fa0000000600a1
:10cbf8000000fa00200f21008040eb000148780077
:10cc08002068a80005e1a8000080fa0000000600de
:10cc18000000fa0005e1a9002068a9000080fa00d8
:10cc2800000006000200fa00200f2100104f7800d3
:10cc38001e4078000004e00003003200200f2100ad
:10cc48008040eb00014878001e4078000080fa0020
:10cc5800000006000000fa00300f210010407800a4
:10cc68000080fb000080fa00000006000000fa00c7
:10cc7800300f21008040eb00014878000080fa0066
:10cc8800000006000000fa0001438000f08f2f002a
:10cc9800008060000080a00000438800714280008e
:10cca800f0ff28000080600000c0a00070428800eb
:10ccb80071428000f08f2f00008060000080a0008b
:10ccc80070428800e142800080ff2f0000806000f1
:10ccd8000000a000e0428800d1428000f0ff280058
:10cce8000080600000c0a000d0428800814280001f
:10ccf800f0ff28000080600000c0a000804288008b
:10cd080081428000f08f2f00008060000080a0002a
:10cd18008042880031428000f0f82f0000806000d7
:10cd28000040a0003042880001438000f0f82f0046
:10cd3800008060000040a00000438800314280006d
:10cd480080ff2f00008060000000a00030428800b3
:10cd580021428000f0ff28000080600000c0a00091
:10cd68002042880031428000f08f2f000080600050
:10cd78000080a000304288001142800080ff2f0010
:10cd8800008060000000a0001042880091428000ee
:10cd980080ff2f00008060000000a0009042880003
:10cda8006142800080ff2f00008060000000a0002a
:10cdb8006042880001428000f0ff28000080600087
:10cdc80000c0a000004288000080fa0000000600b1
:10cdd8000000fa000002200000588800200220000d
:10cde80010588800062bef0000002100205888000a
:10cdf8000a2bef00082bef000c2bef00700020002f
:10ce0800705888000088a9002088a8000002200027
:10ce1800805888007003200090588800162bef0077
:10ce280000002100a05888001a2bef00182bef00f3
:10ce38001c2bef0070002000f058880001c8a900e2
:10ce480021c8a800000222000059880060042000c0
:10ce580010598800262bef00000021002059880077
:10ce68002a2bef00282bef002c2bef00700020005e
:10ce7800705988000308a9002308a80000022200ae
:10ce8800805988007004200090598800362bef00e4
:10ce980000002100a05988003a2bef00382bef0042
:10cea8003c2bef0070002000f05988000488a9008e
:10ceb8002488a8000080fa00000006000000fa009c
:10cec8000080fa00000006000000fa000080fa0066
:10ced800000006000000fa000080fa0000000600ca
:0ccee8000000fa000080fa0000000600c4
:020000040000fa
:10cef400781000000200000080000000c010000054
:10cf040020000000800000007a10000002000000f1
:10cf140082000000ffff0000e0100000120000008b
:10cf240080000000441000000e000000800000009b
:10cf340000130000120000008000000052100000e6
:10cf44000e00000080000000f2100000020000004b
:10cf5400800000007c10000002000000800000003f
:10cf640000110000000100008000000060100000bb
:10cf74000c0000008000000000120000000100000e
:10cf8400800000006c1000000c0000008000000015
:10cf94007e1000004200000080000000001000002d
:0ccfa400440000008000000000000000bd
:020000040000fa
:10cfb0000000fa0000002300203a88004827ef0014
:10cfc00000602900703a8800e0002000303a8800b4
:10cfd0006027ef006227ef006427ef006627ef006d
:10cfe0006a27ef006c27ef00320020008007200046
:10cff000a10920003374200080497800814978001d
:10d000008249780012002000600420007105200091
:10d010002374200080497800814978008249780093
:10d0200000000000103a8000610060000000e00095
:10d03000fcff3a0000000000113a800000022000ce
:10d04000008060000000e000fbff32000080fa007a
:10d05000000006000200fa00000f780021028000a4
:10d06000200f2000008060001e0070002002880059
:10d070000080fa00000006000000fa00c3e8a800e3
:10d0800000000000000000000080fa000000060020
:10d090000000fa0040fe0700fcfe0700c4ff070086
:10d0a0002bfc0700a2fa070009000700cbf50700d8
:10d0b000bef0070048ff070098fe0700eeff0700dc
:10d0c00000022000e3ff07000080fa0000000600d5
:10d0d0000000fa0040002800001988002223ef0019
:10d0e000f0e12000201988002823ef002e23ef0014
:10d0f000a0002000801988003223ef002623ef00d3
:10d10000a08826000600070021a8a8000080fa00d9
:10d11000000006000000fa000080fa00000006008f
:10d120000200fa00000f78001e007800c08388001b
:10d130000080fa00000006000200fa00000f7800ec
:10d140009e007800d1838800ffff37000000fa00be
:10d15000000c210080077800800d2100000188006c
:08d160000080fa000000060047
:020000040000fa
:02000004000af0
:04afe000cfff00009f
